{
  "address": "0x9fE46736679d2D9a65F0992F2272dE9f3c7fa6e0",
  "abi": [
    {
      "inputs": [],
      "stateMutability": "nonpayable",
      "type": "constructor"
    },
    {
      "inputs": [],
      "name": "purpose",
      "outputs": [
        {
          "internalType": "string",
          "name": "",
          "type": "string"
        }
      ],
      "stateMutability": "view",
      "type": "function"
    },
    {
      "inputs": [
        {
          "internalType": "string",
          "name": "newPurpose",
          "type": "string"
        }
      ],
      "name": "setPurpose",
      "outputs": [],
      "stateMutability": "nonpayable",
      "type": "function"
    }
  ],
  "transactionHash": "0x5a42c9e0b53ca20299709e078a34fffb47040b4b42a96eb224d3db670b77bf2a",
  "args": [],
  "solcInputHash": "387a83760a690e63353d95a49448afea",
  "bytecode": "0x60c0604052601060808190526f556e73746f707061626c65204170707360801b60a09081526100319160009190610044565b5034801561003e57600080fd5b50610118565b828054610050906100dd565b90600052602060002090601f01602090048101928261007257600085556100b8565b82601f1061008b57805160ff19168380011785556100b8565b828001600101855582156100b8579182015b828111156100b857825182559160200191906001019061009d565b506100c49291506100c8565b5090565b5b808211156100c457600081556001016100c9565b600181811c908216806100f157607f821691505b6020821081141561011257634e487b7160e01b600052602260045260246000fd5b50919050565b610330806101276000396000f3fe608060405234801561001057600080fd5b50600436106100365760003560e01c806370740aab1461003b578063eb68757f14610059575b600080fd5b61004361006e565b6040516100509190610256565b60405180910390f35b61006c6100673660046101ac565b6100fc565b005b6000805461007b906102a9565b80601f01602080910402602001604051908101604052809291908181526020018280546100a7906102a9565b80156100f45780601f106100c9576101008083540402835291602001916100f4565b820191906000526020600020905b8154815290600101906020018083116100d757829003601f168201915b505050505081565b805161010f906000906020840190610113565b5050565b82805461011f906102a9565b90600052602060002090601f0160209004810192826101415760008555610187565b82601f1061015a57805160ff1916838001178555610187565b82800160010185558215610187579182015b8281111561018757825182559160200191906001019061016c565b50610193929150610197565b5090565b5b808211156101935760008155600101610198565b6000602082840312156101bd578081fd5b813567ffffffffffffffff808211156101d4578283fd5b818401915084601f8301126101e7578283fd5b8135818111156101f9576101f96102e4565b604051601f8201601f19908116603f01168101908382118183101715610221576102216102e4565b81604052828152876020848701011115610239578586fd5b826020860160208301379182016020019490945295945050505050565b6000602080835283518082850152825b8181101561028257858101830151858201604001528201610266565b818111156102935783604083870101525b50601f01601f1916929092016040019392505050565b600181811c908216806102bd57607f821691505b602082108114156102de57634e487b7160e01b600052602260045260246000fd5b50919050565b634e487b7160e01b600052604160045260246000fdfea264697066735822122097335b5e70acf16e326ce897aa4bb2411c0b42fafe14e22ba9b9a5b2f3f8549664736f6c63430008040033",
  "devdoc": {
    "kind": "dev",
    "methods": {},
    "version": 1
  },
  "userdoc": {
    "kind": "user",
    "methods": {},
    "version": 1
  },
  "storageLayout": {
    "storage": [
      {
        "astId": 4,
        "contract": "contracts/YourContract.sol:YourContract",
        "label": "purpose",
        "offset": 0,
        "slot": "0",
        "type": "t_string_storage"
      }
    ],
    "types": {
      "t_string_storage": {
        "encoding": "bytes",
        "label": "string",
        "numberOfBytes": "32"
      }
    }
  }
}